:060000000A128A1110280B
:10000800FE00030E83120313D1000408D2000A086D
:10001800D3000A128A11202B0A128A11132883137B
:100028004330FD000530FE00C630FF00203084005C
:100038000A128A15DC270A128A11D401D501D601C1
:10004800D701D801D901DA01DB01DC01DD01DE01CC
:10005800DF01E001E101E201FD0183010A128A11D9
:1000680035280A128A11E8260A128A110A128A11F8
:10007800E9250A128A110A128A11AD270A128A1171
:100088000A128A15EB270A128A11F6308312031313
:10009800810001300A128A115F270A128A1183121D
:1000A80003135C085D04031D5A285B288929013065
:1000B800D8000030D90088160813881383299F18A0
:1000C8006628672868289F14061B6B286C287028E8
:1000D8000230DA000030DB00061F73287428AE28CF
:1000E80002305A065B04031D7A287B28AE28831247
:1000F80003178D018312031315080A128A11872723
:100108000A128A110130831203178D008312031318
:100118001B080A128A1187270A128A1102308312D1
:1001280003178D008312031356080A128A118727B2
:100138000A128A110330831203178D0083120313E6
:1001480054080A128A1187270A128A118312031384
:10015800DA01DB01861AB128B228B6280330DA00A2
:100168000030DB00861EB928BA28F52803305A0665
:100178005B04031DC028C128F52804308312031727
:100188008D008312031315080A128A1187270A1291
:100198008A110530831203178D00831203131B087D
:1001A8000A128A1187270A128A1106308312031746
:1001B8008D008312031356080A128A1187270A1220
:1001C8008A110730831203178D0083120313540812
:1001D8000A128A1187270A128A1183120313DA0175
:1001E800DB01061AF828F928FD280430DA00003067
:1001F800DB00061E002901293C2904305A065B044D
:10020800031D072908293C290830831203178D008C
:100218008312031315080A128A1187270A128A11F2
:100228000930831203178D00831203131B080A1267
:100238008A1187270A128A110A30831203178D0040
:100248008312031356080A128A1187270A128A1181
:100258000B30831203178D008312031354080A12FC
:100268008A1187270A128A1183120313DA01DB0124
:1002780086193F29402944290530DA000030DB007F
:10028800861D47294829832905305A065B04031D22
:100298004E294F2983290C30831203178D008312AE
:1002A800031315080A128A1187270A128A110D30BA
:1002B800831203178D00831203131B080A128A1175
:1002C80087270A128A110E30831203178D008312B2
:1002D800031356080A128A1187270A128A110F3047
:1002E800831203178D008312031354080A128A110C
:1002F80087270A128A1183120313DA01DB015803D4
:10030800590403198829892963285C035D04031D9E
:100318008E298F29082B0130D8000030D900881287
:1003280008178813022B061B9A299B299F2902303C
:10033800DA000030DB00061FA229A329F1290230C8
:100348005A065B04031DA929AA29F1298312031758
:100358008D010A128A15C6270A128A1183120313FD
:1003680095000130831203178D000A128A15C627DB
:100378000A128A11831203139B0002308312031797
:100388008D000A128A15C6270A128A1183160313CA
:10039800A200A301220883120313D60083160313B5
:1003A800230883120313D7000330831203178D0029
:1003B8000A128A15C6270A128A1183160313A20085
:1003C800A301220883120313D400831603132308FE
:1003D80083120313D500DA01DB01861AF429F52903
:1003E800F9290330DA000030DB00861EFC29FD29DC
:1003F8004C2A03305A065B04031D032A042A4C2A9C
:100408000430831203178D000A128A15C6270A12B0
:100418008A118312031395000530831203178D0088
:100428000A128A15C6270A128A11831203139B001F
:100438000630831203178D000A128A15C6270A127E
:100448008A1183160313A200A3012208831203133F
:10045800D60083160313230883120313D70007302B
:10046800831203178D000A128A15C6270A128A11E9
:1004780083160313A200A301220883120313D400D6
:1004880083160313230883120313D500DA01DB0153
:10049800061A4F2A502A542A0430DA000030DB00AA
:1004A800061E572A582AA72A04305A065B04031D39
:1004B8005E2A5F2AA72A0830831203178D000A12C2
:1004C8008A15C6270A128A11831203139500093068
:1004D800831203178D000A128A15C6270A128A1179
:1004E800831203139B000A30831203178D000A122C
:1004F8008A15C6270A128A1183160313A200A301BC
:10050800220883120313D6008316031323088312C9
:100518000313D7000B30831203178D000A128A15B4
:10052800C6270A128A1183160313A200A301220800
:1005380083120313D40083160313230883120313AF
:10054800D500DA01DB018619AA2AAB2AAF2A0530C1
:10055800DA000030DB00861DB22AB32A022B0530F0
:100568005A065B04031DB92ABA2A022B0C308312DF
:1005780003178D000A128A15C6270A128A118312D8
:10058800031395000D30831203178D000A128A1584
:10059800C6270A128A11831203139B000E30831296
:1005A80003178D000A128A15C6270A128A118316A4
:1005B8000313A200A301220883120313D600831693
:1005C8000313230883120313D7000F308312031772
:1005D8008D000A128A15C6270A128A118316031378
:1005E800A200A301220883120313D4008316031365
:1005F800230883120313D500DA01DB0158035904D9
:100608000319072B082B972902305C065D04031D8C
:100618000E2B0F2B53280130D8000030D900881238
:10062800081388175803590403191B2B1C2B162B66
:1006380053280A128A1110280B1C232B242B4A2B0F
:100648000B10861B282B292B2D2B0130DA000030AC
:10065800DB00861F302B312B4A2B5A035B04031D0A
:10066800362B372B4A2B0130DC070318DD0A003004
:10067800DD07D801D901DA01DB0103305C065D042E
:10068800031D472B482B4A2BDC01DD010C1F4D2B8A
:100698004E2BED2B1F0CCF004F0C0F39003A031DCA
:1006A800562B572B752B0030C700C800FF30C900E8
:1006B8000030CA000330CB000030CC001430CD002D
:1006C8000030CE001E080A128A112A270A128A113F
:1006D80083120313470895001F08C33904389F0085
:1006E800EC2B1F0CCF004F0C0F39013A031D7D2B4B
:1006F8007E2B9C2B0030C700C800FF30C90000309B
:10070800CA000330CB000030CC001430CD000030DC
:10071800CE001E080A128A112A270A128A11831289
:10072800031347089B001F08C33908389F00EC2BA8
:100738001F0CCF004F0C0F39023A031DA42BA52B19
:10074800C52B0030C700C800FF30C9000030CA0000
:100758000130CB000030CC001130CD000030CE008D
:100768001E080A128A112A270A128A1183120313F1
:100778004808D7004708D6001F08C3390C389F001F
:10078800EC2B1F0CCF004F0C0F39033A031DCD2B58
:10079800CE2BEC2B0030C700C800FF30C90000305A
:1007A800CA000130CB000030CC001130CD00003041
:1007B800CE001E080A128A112A270A128A118312E9
:1007C80003134808D5004708D400C3309F05EC2B15
:1007D8000C130B1DF02BF12B0E2C0B11F630810096
:1007E80007145708F1005608F0000A128A15B527B1
:1007F8000A128A1183120313071087155508F1008E
:100808005408F0000A128A15B5270A128A118312B1
:10081800031387118C1E112C122CBD2D33301A0690
:10082800031D172C182C1B2C033095008C12343008
:100838001A06031D202C212C242C043095008C1220
:1008480035301A06031D292C2A2C2D2C053095002D
:100858008C1236301A06031D322C332C362C0630F7
:1008680095008C1237301A06031D3B2C3C2C3F2C6C
:10087800073095008C1238301A06031D442C452C7D
:10088800482C083095008C1239301A06031D4D2C5F
:100898004E2C512C093095008C1241301A06031D3C
:1008A800562C572C5A2C0A3095008C1242301A06B6
:1008B800031D5F2C602C632C0B3095008C12433089
:1008C8001A06031D682C692C6C2C0C3095008C12B0
:1008D80044301A06031D712C722C752C0D309500AE
:1008E8008C1245301A06031D7A2C7B2C7E2C0E3078
:1008F80095008C1246301A06031D832C842C872CF5
:100908000F3095008C1247301A06031D8C2C8D2C45
:10091800902C103095008C1248301A06031D952C27
:10092800962C992C113095008C124A301A06031D0A
:100938009E2C9F2CA22C123095008C124B301A063C
:10094800031DA72CA82CAB2C133095008C124C300F
:100958001A06031DB02CB12CB42C143095008C123F
:100968007A301A06031DB92CBA2CBF2CDC01DD0124
:10097800D801D9018C1278301A06031DC42CC52C55
:10098800CC2C0130DC000030DD00D801D9018C12FC
:1009980063301A06031DD12CD22CD92C0230DC006E
:1009A8000030DD00D801D9018C1264301A06031D0D
:1009B800DE2CDF2CF82C620A031DE32CE42CE52C3A
:1009C800E20111306206031DEA2CEB2CED2C1030ED
:1009D800E2006208203E840083130008950001307D
:1009E800CF004F08E2078C1261301A06031DFD2C58
:1009F800FE2C0D2D620A031D022D032D042DE2018C
:100A08006208203E84008313000895000130E2024A
:100A18008C1277301A06031D122D132D2C2D610A06
:100A2800031D172D182D192DE10111306106031D25
:100A38001E2D1F2D212D1030E1006108203E84005D
:100A4800831300089B000130CF004F08E1078C1288
:100A580073301A06031D312D322D412D610A031DF5
:100A6800362D372D382DE1016108203E840083138F
:100A780000089B000130E1028C1269301A06031D40
:100A8800462D472D652D600A031D4B2D4C2D4D2DF0
:100A9800E00110306006031D522D532D552D0F30E7
:100AA800E0006008323E840083130008CF00D001C4
:100AB8004F08D6005008D7000130CF004F08E00794
:100AC8008C126B301A06031D6A2D6B2D7F2D600A60
:100AD800031D6F2D702D712DE0016008323E8400DA
:100AE80083130008CF00D0014F08D6005008D70064
:100AF8000130E0028C126C301A06031D842D852DFE
:100B0800A32D5F0A031D892D8A2D8B2DDF0110303F
:100B18005F06031D902D912D932D0F30DF005F0888
:100B2800323E840083130008CF00D0014F08D40060
:100B38005008D5000130CF004F08DF078C126A300B
:100B48001A06031DA82DA92DBD2D5F0A031DAD2D65
:100B5800AE2DAF2DDF015F08323E840083130008FD
:100B6800CF00D0014F08D4005008D5000130DF0273
:100B78008C1253088A0052088400510E8300FE0E1E
:100B88007E0E09000334043405340634073408346F
:100B980009340A340B340C340D340E340F34103449
:100BA8001134123413341434013402340334043449
:100BB800053406340734083409340A340B340C3449
:100BC8000D340E340F3410341134831203139F1371
:100BD8001F13831603139F121F129F1383120313ED
:100BE8009F121F129F111F111F1403308316031326
:100BF800A000A00BFD2D080006308A000408840A16
:100C0800820700340A340D342D342D342D342D341C
:100C18002D342D342D342D342D342D342D342D34C4
:100C28002D342D342D342D342D342D342D342D34B4
:100C38002D342D342D342D342D342D342D342D34A4
:100C48002D342D342D342D342D3450344134523438
:100C58004134203443344F344E34543452344F34B6
:100C68004C3441345234203443344F344E342034DD
:100C78004C344134203443344F344D34503455349B
:100C88005434413444344F3452344134203445349C
:100C98004C344534473449345234203445344C3488
:100CA80020344D344F3444344F34203433342D34CD
:100CB8002D342D342D342D342D342D342D342D3424
:100CC8002D342D342D342D342D342D342D342D3414
:100CD8002D342D342D342D342D342D342D342D3404
:100CE8002D342D342D342D342D342D342D342D34F4
:100CF8000A340D34003483120313C401F71F852E00
:100D0800862E8D2EF609F709F60A0319F70AC4018B
:100D1800C40AF91F902E912E9A2EF809F909F80A9B
:100D28000319F90A0130FA007A08C406C501C60198
:100D3800760877040319A12EA22ED92EC301C30A5F
:100D4800B02E01300310F60DF70DFF3E031DA62E41
:100D58000130FA007A08C307F71FB32EB42EA52E68
:100D680001300310C50DC60DFF3E031DB52E7708D3
:100D78007902031DC12E76087802031CC42EC52EE5
:100D8800CC2E7608F8027708031CF903F9024514FB
:100D980001300310F70CF60CFF3E031DCD2E013079
:100DA800C302031DD82ED92EB42E44080319DD2EF4
:100DB800DE2EE32EC509C609C50A0319C60A460868
:100DC800F7004508F6000800831603178901081480
:100DD80088140815881583160313861706178616B0
:100DE80006168615071087118801831203138501DB
:100DF800860188018B170B178B150B108B160B119F
:100E0800831603130C17831203130C13831603138F
:100E18008C16831203138C12831603130F138F1669
:100E28000F160F14811381128111011581140114F9
:100E380095171517951615169515961716139612D4
:100E480016129611831203178F010800FC008312F3
:100E5800031347084902F6004808031C480A4A02D7
:100E6800F7007C08FB0047087B02F00048090318DC
:100E7800013EF1004B084D02F2004C08031C4C0ADD
:100E88004E02F3000A128A11D3270A128A11710836
:100E9800F9007008F8000A128A117F260A128A11CE
:100EA800831203134B087607C7004C0803184C0A33
:100EB8007707C800080083160313A1007A2F83124E
:100EC8000C1E672F682F632F8316031321088400D5
:100ED8000A128A1100260A128A1183120313990032
:100EE800013083160313A0002008A10721088400FD
:100EF8000A128A1100260A128A11003A031D852F48
:100F0800862F632F080083160313A0008316031788
:100F18008C188F2F902F8A2F831603132008831283
:100F280003178C00831603178C130C158B138B1B5C
:100F38009E2F9F2F9B2F5530831603178D00AA30A5
:100F48008D008C148B178C18AA2FAB2FA72F0C1180
:100F580008008316031307159B3092000C30831288
:100F680003139700303097040B3095008C109214BF
:100F7800121412158316031387140C3083120313EB
:100F88009D001D169D160B309B008C1CCC2FCD2F61
:100F9800C92F8C1083160313071187100800F4015A
:100FA800F501701CD82FD92FDF2F7208F40703180A
:100FB800F50A7308F50701300310F20DF30DFF3E33
:100FC800031DE02F01300310F10CF00CFF3E031D50
:100FD800E72F70087104031DF22FF32FD52F750822
:080FE800F1007408F00008009C
:101F6A00BF2FB72FB82FB92F0130F0020030031C52
:101F7A00F103F10270087104031DC42FC52FB62F97
:101F8A000800831603178C18CB2FCC2FC62F0C18DA
:101F9A00CF2FD02FC62F8C130C14831203170C08C3
:101FAA00FD007D0808007E088A007F0882000A1268
:101FBA008A15D8270A128A158000840A04087D0621
:101FCA0003190034FF0A0319FE0ADC2F83160317CC
:101FDA0087158316031318159A010C3099001812E5
:101FEA008312031398178316031398168312031385
:061FFA000C12181608008D
:08400000FF3FFF3FFF3FFF3FC0
:04400E00D420FF3F7C
:00000001FF
