:060000000A128A1110280B
:10000800FE00030E83120313AD000408AE000A08B5
:10001800AF000A128A110A2A0A128A1113288313B6
:100028004930FD000530FE00B030FF00403084004C
:100038000A128A1183250A128A11B401B501B60180
:10004800B701B801B901BA01BB01BC01BD01BE01CC
:10005800BF01FD0183010A128A1132280A128A118E
:1000680049240A128A110A128A1153250A128A117E
:100078000A128A11E7240A128A110A128A116A25B9
:100088000A128A11F63083120313810001300A1212
:100098008A1132250A128A11831203133C083D047F
:1000A800031D5728582810290130B8000030B9001E
:1000B8000A299F186028612862289F148816081347
:1000C8008813061B682869286D280230BA0000309A
:1000D800BB00061F70287128B72802303A063B0477
:1000E800031D77287828B728831203178D018312F8
:1000F800031315080A128A11BD240A128A118428CA
:10010800852800000130831203178D008312031322
:100118001B080A128A11BD240A128A1193289428EE
:1001280000000230831203178D0083120313360870
:100138000A128A11BD240A128A11A228A3280000D3
:100148000330831203178D008312031334080A1235
:100158008A11BD240A128A11B128B228000083121C
:100168000313BA01BB01861ABA28BB28BF2803307B
:10017800BA000030BB00861EC228C3280A290330F3
:100188003A063B04031DC928CA280A2904308312E9
:1001980003178D008312031315080A128A11BD2450
:1001A8000A128A11D728D8280000053083120317AD
:1001B8008D00831203131B080A128A11BD240A1228
:1001C8008A11E628E72800000630831203178D00FD
:1001D8008312031336080A128A11BD240A128A11DF
:1001E800F528F62800000730831203178D008312C4
:1001F800031334080A128A11BD240A128A11042929
:100208000529000083120313BA01BB01380339041E
:1002180003190F2910295D283C033D04031D1529E6
:100228001629EC290A128A11A3250A128A1101300B
:1002380083120313B8000030B900E62988120817A2
:100248008813061B282929292D290230BA000030D5
:10025800BB00061F30293129852902303A063B04A4
:10026800031D372938298529831203178D010A129E
:100278008A11B9250A128A117D0883120313950081
:100288004529462900000130831203178D000A1200
:100298008A11B9250A128A117D08831203139B005B
:1002A8005529562900000230831203178D000A12BF
:1002B8008A11B9250A128A117D0883120313B20024
:1002C800B3013208B6003308B7006A296B29000069
:1002D8000330831203178D000A128A11B9250A12F6
:1002E8008A117D0883120313B200B3013208B400E7
:1002F8003308B5007F298029000083120313BA014F
:10030800BB01861A882989298D290330BA00003053
:10031800BB00861E90299129E62903303A063B0442
:10032800031D97299829E6290430831203178D00A5
:100338000A128A11B9250A128A117D088312031339
:100348009500A629A72900000530831203178D0000
:100358000A128A11B9250A128A117D088312031319
:100368009B00B629B72900000630831203178D00B9
:100378000A128A11B9250A128A117D0883120313F9
:10038800B200B3013208B6003308B700CB29CC2934
:1003980000000730831203178D000A128A11B9254D
:1003A8000A128A117D0883120313B200B3013208BE
:1003B800B4003308B500E029E129000083120313D3
:1003C800BA01BB01380339040319EB29EC292229A6
:1003D80002303C063D04031DF229F3295028013060
:1003E800B8000030B900002A831603138C16831254
:1003F8000313881208138817380339040319052AC8
:10040800062AF82950280A128A1110280B1C0D2ACE
:100418000E2A342A0B10861B122A132A172A013097
:10042800BA000030BB00861F1A2A1B2A342A3A0356
:100438003B04031D202A212A342A0130BC07031853
:10044800BD0A0030BD07B801B901BA01BB010330CC
:100458003C063D04031D312A322A342ABC01BD0161
:100468000C1F372A382AD72A1F0CAC002C0C0F393E
:10047800003A031D402A412A5F2A0030A400A50043
:10048800FF30A6000030A7000730A8000030A90000
:100498000F30AA000030AB001E080A128A11882407
:1004A8000A128A1183120313240895001F08C339FE
:1004B80004389F00D62A1F0CAC002C0C0F39013AC7
:1004C800031D672A682A862A0030A400A500FF3089
:1004D800A6000030A7000730A8000030A9000F30A0
:1004E800AA000030AB001E080A128A1188240A12DA
:1004F8008A118312031324089B001F08C339083884
:100508009F00D62A1F0CAC002C0C0F39023A031D91
:100518008E2A8F2AAF2A0030A400A500FF30A6003B
:100528000030A7000530A8000030A9000E30AA004E
:100538000030AB001E080A128A1188240A128A1198
:10054800831203132508B7002408B6001F08C3390F
:100558000C389F00D62A1F0CAC002C0C0F39033A1C
:10056800031DB72AB82AD62A0030A400A500FF30F8
:10057800A6000030A7000530A8000030A9000E3002
:10058800AA000030AB001E080A128A1188240A1239
:100598008A11831203132508B5002408B400C33058
:1005A8009F05D62A0C130B1DDA2ADB2AF82A0B1111
:1005B800F630810007143708F1003608F0000A12F7
:1005C8008A1192250A128A118312031307108715BC
:1005D8003508F1003408F0000A128A1192250A122F
:1005E8008A118312031387118C1EFB2AFC2A582BAD
:1005F80064301A06031D012B022B152B09303F0608
:10060800031D072B082B0A2B0830BF003F08403E6C
:1006180084008313000895000130AC002C08BF0744
:100628008C1261301A06031D1A2B1B2B2A2B3F0A2A
:10063800031D1F2B202B212BBF013F08403E8400A8
:100648008313000895000130BF028C1277301A0618
:10065800031D2F2B302B432B09303E06031D352B52
:10066800362B382B0830BE003E08403E84008313EA
:10067800000895000130AC002C08BE078C127330BE
:100688001A06031D482B492B582B3E0A031D4D2BD8
:100698004E2B4F2BBE013E08403E840083130008BA
:1006A80095000130BE028C122F088A002E088400A3
:1006B8002D0E8300FE0E7E0E090003308A0004080A
:1006C800840A820700340A340D342D342D342D3435
:1006D8002D342D342D342D342D342D342D342D340A
:1006E8002D342D342D342D342D342D342D342D34FA
:1006F8002D342D342D342D342D342D342D342D34EA
:100708002D342D342D342D342D342D3450344134A2
:1007180052344134203443344F344E3454345234F8
:100728004F344C3441345234203443344F344E34F3
:1007380020344C344134203443344F344D34503415
:1007480055345434413444344F34523441342034D1
:1007580045344C34453447344934523420344534D4
:100768004C3420344D344F3444344F3420343334F3
:100778002D342D342D342D342D342D342D342D3469
:100788002D342D342D342D342D342D342D342D3459
:100798002D342D342D342D342D342D342D342D3449
:1007A8002D342D342D342D342D342D342D342D3439
:1007B8002D340A340D34003483120313A101F71FBA
:1007C800E62BE72BEE2BF609F709F60A0319F70AC9
:1007D800A101A10AF91FF12BF22BFB2BF809F9094A
:1007E800F80A0319F90A0130FA007A08A106A201E9
:1007F800A301760877040319022C032C3A2CA001D4
:10080800A00A112C01300310F60DF70DFF3E031D51
:10081800072C0130FA007A08A007F71F142C152CB2
:10082800062C01300310A20DA30DFF3E031D162C4C
:1008380077087902031D222C76087802031C252CE0
:10084800262C2D2C7608F8027708031CF903F902E8
:10085800221401300310F70CF60CFF3E031D2E2C5A
:100868000130A002031D392C3A2C152C210803193C
:100878003E2C3F2C442CA209A309A20A0319A30A5F
:100888002308F7002208F6000800831603178901D9
:100898000814881408158815831603138617061775
:1008A8008616061686150710871189018801831296
:1008B800031385018601880189018B170B178B1596
:1008C8000B108B160B11831603130C1783120313CB
:1008D8000C13831603138C120F138F160F160F1495
:1008E80081138112811101158114011495171517AF
:1008F8009516151695159617161396121612961123
:10090800831203178F010800FC00831203132408C5
:100918002602F6002508031C250A2702F7007C0892
:10092800FB0024087B02F00025090318013EF100B2
:1009380028082A02F2002908031C290A2B02F300BE
:100948000A128A110D250A128A117108F900700815
:10095800F8000A128A11E0230A128A11831203137B
:1009680028087607A40029080318290A7707A5008C
:10097800080083120313B0003008831203178C0099
:10098800831603178C130C158B138B1BCC2CCD2CB7
:10099800C92CCE2CCF2CD02C5530831603178D00A4
:1009A800AA308D008C140A128A11A3250A128A1102
:1009B800DD2CDE2CDF2C831603178C18E42CE52C99
:1009C800DF2C0C1108008316031307159B309200C7
:1009D8000C30831203139700303097040B309500C6
:1009E8008C109214121412158316031387140C30EA
:1009F800831203139D001D169D160B309B008C1C43
:100A0800062D072D032D8C1083160313071187104D
:100A18000800F401F501701C122D132D192D720810
:100A2800F4070318F50A7308F50701300310F20DEF
:100A3800F30DFF3E031D1A2D01300310F10CF00CCD
:100A4800FF3E031D212D70087104031D2C2D2D2D33
:100A58000F2D7508F1007408F000080083120313C5
:100A6800B100462D0C1E392D3A2D362D3108840043
:100A78000A128A1161230A128A1199000130B00002
:100A88003008B107310884000A128A1161230A125A
:100A98008A11003A031D512D522D362D080083125C
:100AA80003139F131F13831603139F121F129F1301
:100AB800831203139F121F129F111F111F1403305B
:100AC80083120313B000B00B672D080083160317B9
:100AD80087158316031318159A010C3099001812FC
:100AE800831203139817831603139816831203139C
:100AF8000C12181608007E088A007F0882000A1265
:100B08008A117F250A128A118000840A04087D064A
:100B180003190034FF0A0319FE0A832D9C2D942D16
:100B2800952D962D0130F0020030031CF103F102DF
:100B380070087104031DA12DA22D932D08008B1799
:100B48000B178B150B108B160B11831603130C1731
:100B5800831203130C1308000734083409340A34C9
:100B68000B340C340D340E340F34831603178C13E6
:0C0B78000C14831203170C08FD00080089
:08400000FF3FFF3FFF3FFF3FC0
:04400E00D420FF3F7C
:00000001FF
