:060000000A128A110E280D
:10000800FE00030E83120313AD000A08AE000A12A5
:100018008A113E290A128A111128FD0183133330EF
:10002800840045300A128A1126240A128A11830193
:100038000A128A111F280A128A119C220A128A118E
:100048000A128A11D3230A128A110A128A11672303
:100058000A128A110A128A11EA230A128A11F63040
:1000680083120313810001300A128A11B2230A1283
:100078008A118312031343084404031D44284528A6
:10008800AA280130BF000030C000A4289F184D28BE
:100098004E284F289F14881608138813061B5528C6
:1000A80056285A280230C1000030C200061F5D28B9
:1000B8005E28A428023041064204031D64286528EE
:1000C800A428831203178D018312031315080A123B
:1000D8008A113D230A128A11712872280000013002
:1000E800831203178D00831203131B080A128A1147
:1000F8003D230A128A1180288128000002308312C9
:1001080003178D00831203133D080A128A113D2339
:100118000A128A118F2890280000033083120317CF
:100128008D00831203133B080A128A113D230A1219
:100138008A119E289F28000083120313C101C2015F
:100148003F0340040319A928AA284A284303440462
:10015800031DAF28B02825290A128A1110240A1273
:100168008A11013083120313BF000030C0001F2919
:10017800881208178813061BC228C328C72802300C
:10018800C1000030C200061FCA28CB281F29023030
:1001980041064204031DD128D2281F2983120317C0
:1001A8008D010A128A111D240A128A117D088312F0
:1001B80003139500DF28E02800000130831203179D
:1001C8008D000A128A111D240A128A117D088312D1
:1001D80003139B00EF28F028000002308312031756
:1001E8008D000A128A111D240A128A117D088312B1
:1001F8000313B100B2013108BD003208BE00042962
:10020800052900000330831203178D000A128A1192
:100218001D240A128A117D0883120313B100B2014A
:100228003108BB003208BC0019291A2900008312C2
:100238000313C101C2013F034004031924292529DE
:10024800BC28023043064404031D2B292C293D28D1
:100258000130BF000030C000342988120813881705
:100268003F034004031939293A2931293D280A1244
:100278008A110E280B1C4129422968290B10861B5C
:10028800462947294B290130C1000030C200861F8A
:100298004E294F29682941034204031D5429552931
:1002A80068290130C3070318C40A0030C407BF0116
:1002B800C001C101C201033043064404031D65297E
:1002C80066296829C301C4010C1F6B296C290B2AF4
:1002D8001F0CAC002C0C0F39003A031D742975292A
:1002E80093290030A400A500FF30A6000030A70025
:1002F8000730A8000030A9000F30AA000030AB007A
:100308001E080A128A11DA220A128A1183120313AA
:10031800240895001F08C33904389F000A2A1F0CB7
:10032800AC002C0C0F39013A031D9B299C29BA29D2
:100338000030A400A500FF30A6000030A700073059
:10034800A8000030A9000F30AA000030AB001E083A
:100358000A128A11DA220A128A1183120313240854
:100368009B001F08C33908389F000A2A1F0CAC00DD
:100378002C0C0F39023A031DC229C329E329003086
:10038800A400A500FF30A6000030A7000530A80093
:100398000030A9000E30AA000030AB001E080A1277
:1003A8008A11DA220A128A11831203132508BE0061
:1003B8002408BD001F08C3390C389F000A2A1F0CE7
:1003C800AC002C0C0F39033A031DEB29EC290A2A3F
:1003D8000030A400A500FF30A6000030A7000530BB
:1003E800A8000030A9000E30AA000030AB001E089B
:1003F8000A128A11DA220A128A11831203132508B3
:10040800BC002408BB00C3309F050A2A0C130B1D2F
:100418000E2A0F2A2C2A0B11F630810007143E08E9
:10042800F1003D08F0000A128A11FF230A128A110E
:1004380083120313071087153C08F1003B08F000EE
:100448000A128A11FF230A128A11831203138711D1
:100458002E088A002D0E8300FE0E7E0E09008312E0
:100468000313A101F71F392A3A2A412AF609F70985
:10047800F60A0319F70AA101A10AF91F442A452A15
:100488004E2AF809F909F80A0319F90A0130FA009D
:100498007A08A106A201A301760877040319552A50
:1004A800562A8D2AA001A00A642A01300310F60DED
:1004B800F70DFF3E031D5A2A0130FA007A08A007FB
:1004C800F71F672A682A592A01300310A20DA30DC5
:1004D800FF3E031D692A77087902031D752A7608ED
:1004E8007802031C782A792A802A7608F802770885
:1004F800031CF903F902221401300310F70CF60C5F
:10050800FF3E031D812A0130A002031D8C2A8D2A7B
:10051800682A21080319912A922A972AA209A3096D
:10052800A20A0319A30A2308F7002208F600080004
:10053800831603178901081488140815881583166B
:1005480003138617061786160616861507108711D1
:1005580089018801831203138501860188018901B5
:100568008B170B178B150B108B160B118316031398
:100578000C17831203130C13831603130F138F1610
:100588000F160F14811381128111011581140114A2
:10059800951715179516151695159617161396127D
:1005A80016129611831203178F010800FC0083129C
:1005B800031324082602F6002508031C250A27022F
:1005C800F7007C08FB0024087B02F00025090318CB
:1005D800013EF10028082A02F2002908031C290A12
:1005E8002B02F3000A128A118D230A128A1171084C
:1005F800F9007008F8000A128A1133220A128A11C7
:100608008312031328087607A40029080318290A67
:100618007707A500080003308A000408840A8207C7
:1006280000340A340D342D342D342D342D342D342A
:100638002D342D342D342D342D342D342D342D34AA
:100648004D3445344E3455342D342D342D342D3419
:100658002D342D342D342D342D342D342D342D348A
:100668002D342D342D342D342D342D340A340D34BD
:10067800003483120313AF002F08831203178C0072
:10068800831603178C130C158B138B1B4C2B4D2BBC
:10069800492B4E2B4F2B502B5530831603178D00AB
:1006A800AA308D008C140A128A1110240A128A1199
:1006B8005D2B5E2B5F2B831603178C18642B652B21
:1006C8005F2B0C1108008316031307159B3092004B
:1006D8000C30831203139700303097040B309500C9
:1006E8008C109214121412158316031387140C30ED
:1006F800831203139D001D169D160B309B008C1C46
:10070800862B872B832B8C108316031307118710D6
:100718000800F401F501701C922B932B992B720899
:10072800F4070318F50A7308F50701300310F20DF2
:10073800F30DFF3E031D9A2B01300310F10CF00C52
:10074800FF3E031DA12B70087104031DAC2BAD2BBC
:100758008F2B7508F1007408F0000800831203134A
:10076800B000C62B0C1EB92BBA2BB62B3008840050
:100778000A128A110F230A128A1199000130AF0058
:100788002F08B007300884000A128A110F230A12B2
:100798008A11003A031DD12BD22BB62B08008312E5
:1007A80003139F131F13831603139F121F129F1304
:1007B800831203139F121F129F111F111F1403305E
:1007C80083120313AF00AF0BE72B08008316031740
:1007D80087158316031318159A010C3099001812FF
:1007E800831203139817831603139816831203139F
:1007F8000C1218160800092C012C022C032C0130AD
:10080800F0020030031CF103F10270087104031DAB
:100818000E2C0F2C002C08008B170B178B150B10A8
:100828008B160B11831603130C17831203130C1367
:100838000800831603178C130C14831203170C0873
:10084800FD00080064008001840A040603190034CE
:040858000406272C3F
:08400000FF3FFF3FFF3FFF3FC0
:04400E00D420FF3F7C
:00000001FF
