:060000000A128A1110280B
:10000800FE00030E83120313D1000408D2000A086D
:10001800D3000A128A1134280A128A11132883136A
:100028004330FD000630FE002130FF002030840000
:100038000A128A1174260A128A11D401D501D6012E
:10004800D701D801D901DA01DB01DC01DD01DE01CC
:10005800DF01E001E101FD0183010A128A11382A5A
:100068000B1C372838285E280B10861B3C283D2897
:1000780041280130DA000030DB00861F442845287B
:100088005E285A035B04031D4A284B285E2801306A
:10009800DC070318DD0A0030DD07D801D901DA01D1
:1000A800DB0103305C065D04031D5B285C285E28C9
:1000B800DC01DD010C1F6128622801291F0CCF001B
:1000C8004F0C0F39003A031D6A286B288928003025
:1000D800C700C800FF30C9000030CA000330CB0099
:1000E8000030CC001430CD000030CE001E080A12BB
:1000F8008A114F250A128A118312031347089500A3
:100108001F08C33904389F0000291F0CCF004F0C6B
:100118000F39013A031D91289228B0280030C700F2
:10012800C800FF30C9000030CA000330CB000030DF
:10013800CC001430CD000030CE001E080A128A11FF
:100148004F250A128A118312031347089B001F08C0
:10015800C33908389F0000291F0CCF004F0C0F39F6
:10016800023A031DB828B928D9280030C700C800AA
:10017800FF30C9000030CA000130CB000030CC008D
:100188001130CD000030CE001E080A128A114F250A
:100198000A128A11831203134808D7004708D600A9
:1001A8001F08C3390C389F0000291F0CCF004F0CC3
:1001B8000F39033A031DE128E22800290030C7005F
:1001C800C800FF30C9000030CA000130CB00003041
:1001D800CC001130CD000030CE001E080A128A1162
:1001E8004F250A128A11831203134808D5004708BD
:1001F800D400C3309F0500290C130B1D04290529C1
:1002080022290B11F630810007145708F10056080F
:10021800F0000A128A1183260A128A118312031324
:10022800071087155508F1005408F0000A128A11C2
:1002380083260A128A118312031387118C1E25291B
:1002480026292F2A31301A06031D2B292C2931295A
:10025800DC01DD01D801D9018C1232301A06031DE8
:10026800362937293E290130DC000030DD00D8016D
:10027800D9018C1233301A06031D432944294B290E
:100288000230DC000030DD00D801D9018C12643066
:100298001A06031D502951296A29610A031D552987
:1002A80056295729E10111306106031D5C295D2992
:1002B8005F291030E1006108203E840083130008A4
:1002C80095000130CF004F08E1078C1261301A0603
:1002D800031D6F2970297F29610A031D7429752957
:1002E8007629E1016108203E840083130008950007
:1002F8000130E1028C1277301A06031D8429852902
:100308009E29600A031D89298A298B29E001113059
:100318006006031D9029912993291030E000600898
:10032800203E8400831300089B000130CF004F0853
:10033800E0078C1273301A06031DA329A429B329D8
:10034800600A031DA829A929AA29E0016008203EFE
:100358008400831300089B000130E0028C1269308E
:100368001A06031DB829B929D7295F0A031DBD2913
:10037800BE29BF29DF0110305F06031DC429C52926
:10038800C7290F30DF005F08323E8400831300085E
:10039800CF00D0014F08D6005008D7000130CF0059
:1003A8004F08DF078C126B301A06031DDC29DD2984
:1003B800F1295F0A031DE129E229E329DF015F082A
:1003C800323E840083130008CF00D0014F08D600C6
:1003D8005008D7000130DF028C126C301A06031D5A
:1003E800F629F729152A5E0A031DFB29FC29FD2990
:1003F800DE0110305E06031D022A032A052A0F308B
:10040800DE005E08323E840083130008CF00D0016E
:100418004F08D4005008D5000130CF004F08DE0740
:100428008C126A301A06031D1A2A1B2A2F2A5E0A02
:10043800031D1F2A202A212ADE015E08323E84007D
:1004480083130008CF00D0014F08D4005008D5000E
:100458000130DE028C1253088A0052088400510EC3
:100468008300FE0E7E0E09000A128A1110250A1258
:100478008A110A128A1144260A128A110A128A114A
:10048800D6250A128A110A128A115B260A128A11C3
:10049800F63083120313810001300A128A11AE2547
:1004A8000A128A11831203135C085D04031D5D2A76
:1004B8005E2A162B0130D8000030D900102B9F1867
:1004C800662A672A682A9F14881608138813061B49
:1004D8006E2A6F2A732A0230DA000030DB00061F0A
:1004E800762A772ABD2A02305A065B04031D7D2A24
:1004F8007E2ABD2A831203178D0183120313150860
:100508000A128A1184250A128A118A2A8B2A000063
:100518000130831203178D00831203131B080A127C
:100528008A1184250A128A11992A9A2A000002300F
:10053800831203178D008312031356080A128A11B7
:1005480084250A128A11A82AA92A000003308312D6
:1005580003178D008312031354080A128A11842585
:100568000A128A11B72AB82A000083120313DA0183
:10057800DB01861AC02AC12AC52A0330DA000030F6
:10058800DB00861EC82AC92A102B03305A065B04D2
:10059800031DCF2AD02A102B0430831203178D0095
:1005A8008312031315080A128A1184250A128A1164
:1005B800DD2ADE2A00000530831203178D0083121E
:1005C80003131B080A128A1184250A128A11EC2ABD
:1005D800ED2A00000630831203178D0083120313DF
:1005E80056080A128A1184250A128A11FB2AFC2A43
:1005F80000000730831203178D0083120313540879
:100608000A128A1184250A128A110A2B0B2B000060
:1006180083120313DA01DB01580359040319152B5C
:10062800162B632A5C035D04031D1B2B1C2B0A2C51
:100638000A128A1194260A128A11013083120313AE
:10064800D8000030D900042C881208178813061B1C
:100658002E2B2F2B332B0230DA000030DB00061F45
:10066800362B372B972B02305A065B04031D3D2B84
:100678003E2B972B831203178D010A128A11A1268C
:100688000A128A117D088312031395004B2B4C2BF9
:1006980000000130831203178D000A128A11A12667
:1006A8000A128A117D08831203139B005B2B5C2BB3
:1006B80000000230831203178D000A128A11A12646
:1006C8000A128A117D0883160313A200A3012208C7
:1006D80083120313D600831603132308831203130C
:1006E800D700762B772B00000330831203178D0079
:1006F8000A128A11A1260A128A117D088316031389
:10070800A200A301220883120313D4008316031343
:10071800230883120313D500912B922B0000831218
:100728000313DA01DB01861A9A2B9B2B9F2B0330CC
:10073800DA000030DB00861EA22BA32B042C03302A
:100748005A065B04031DA92BAA2B042C0430831220
:1007580003178D000A128A11A1260A128A117D0830
:10076800831203139500B82BB92B000005308312B0
:1007780003178D000A128A11A1260A128A117D0810
:10078800831203139B00C82BC92B00000630831269
:1007980003178D000A128A11A1260A128A117D08F0
:1007A80083160313A200A301220883120313D600A1
:1007B80083160313230883120313D700E32BE42BB8
:1007C80000000730831203178D000A128A11A12630
:1007D8000A128A117D0883160313A200A3012208B6
:1007E80083120313D40083160313230883120313FD
:1007F800D500FE2BFF2B000083120313DA01DB0167
:10080800580359040319092C0A2C282B02305C06BA
:100818005D04031D102C112C562A0130D80000301D
:10082800D9001E2C831603138C1683120313881207
:1008380008138817580359040319232C242C162C41
:10084800562A0A128A11102804308A000408840AD9
:10085800820700340A340D342D342D342D342D34D0
:100868002D342D342D342D342D342D342D342D3478
:100878002D342D342D342D342D342D342D342D3468
:100888002D342D342D342D342D342D342D342D3458
:100898002D342D342D342D342D34503441345234EC
:1008A8004134203443344F344E34543452344F346A
:1008B8004C3441345234203443344F344E34203491
:1008C8004C344134203443344F344D34503455344F
:1008D8005434413444344F34523441342034453450
:1008E8004C344534473449345234203445344C343C
:1008F80020344D344F3444344F34203433342D3481
:100908002D342D342D342D342D342D342D342D34D7
:100918002D342D342D342D342D342D342D342D34C7
:100928002D342D342D342D342D342D342D342D34B7
:100938002D342D342D342D342D342D342D342D34A7
:100948000A340D34003483120313C401F71FAD2C8D
:10095800AE2CB52CF609F709F60A0319F70AC401F3
:10096800C40AF91FB82CB92CC22CF809F909F80ADD
:100978000319F90A0130FA007A08C406C501C6014C
:10098800760877040319C92CCA2C012DC301C30AA0
:10099800D82C01300310F60DF70DFF3E031DCE2CA9
:1009A8000130FA007A08C307F71FDB2CDC2CCD2CAA
:1009B80001300310C50DC60DFF3E031DDD2C770861
:1009C8007902031DE92C76087802031CEC2CED2C27
:1009D800F42C7608F8027708031CF903F902451489
:1009E80001300310F70CF60CFF3E031DF52C013007
:1009F800C302031D002D012DDC2C44080319052D0D
:100A0800062D0B2DC509C609C50A0319C60A4608CD
:100A1800F7004508F6000800831603178901081433
:100A28008814081588158316031386170617861663
:100A3800061686150710871189018801831203138A
:100A480085018601880189018B170B178B150B10FF
:100A58008B160B11831603130C17831203130C1335
:100A6800831603138C120F138F160F160F1481138E
:100A78008112811101158114011495171517951606
:100A880015169515961716139612161296118312A7
:100A980003178F010800FC0083120313470849025B
:100AA800F6004808031C480A4A02F7007C08FB00C5
:100AB80047087B02F00048090318013EF1004B0883
:100AC8004D02F2004C08031C4C0A4E02F3000A12B5
:100AD8008A11FC250A128A117108F9007008F800B9
:100AE8000A128A11A7240A128A11831203134B08C7
:100AF8007607C7004C0803184C0A7707C800080097
:100B080083160313A0002008831203178C00831692
:100B180003178C130C158B138B1B932D942D902D71
:100B2800952D962D972D5530831603178D00AA30D5
:100B38008D008C140A128A1194260A128A11A42D87
:100B4800A52DA62D831603178C18AB2DAC2DA62D1D
:100B58000C11080083160313A100C92D83120C1E63
:100B6800B62DB72DB22D83160313210884000A125F
:100B78008A1128240A128A1183120313990001305A
:100B880083160313A0002008A107210884000A1275
:100B98008A1128240A128A11003A031DD42DD52D52
:100BA800B22D08008316031307159B3092000C30F2
:100BB800831203139700303097040B3095008C1084
:100BC8009214121412158316031387140C3083120F
:100BD80003139D001D169D160B309B008C1CF52DD4
:100BE800F62DF22D8C1083160313071187100800B9
:100BF800F401F501701C012E022E082E7208F4076C
:100C08000318F50A7308F50701300310F20DF30D08
:100C1800FF3E031D092E01300310F10CF00CFF3EBE
:100C2800031D102E70087104031D1B2E1C2EFE2D93
:100C38007508F1007408F000080003340434053422
:100C480006340734083409340A340B340C340D34B0
:100C58000E340F3410341134123413341434013474
:100C680002340334043405340634073408340934B0
:100C78000A340B340C340D340E340F341034113460
:100C8800831203139F131F13831603139F121F123C
:100C98009F13831203139F121F129F111F111F14FA
:100CA800033083160313A000A00B582E08008316E8
:100CB800031787158316031318159A010C3099002A
:100CC80018128312031398178316031398168312A6
:100CD80003130C12181608007E088A007F08820089
:100CE8000A128A1170260A128A118000840A0408DE
:100CF8007D0603190034FF0A0319FE0A742E8D2E8F
:100D0800852E862E872E0130F0020030031CF10359
:100D1800F10270087104031D922E932E842E080090
:100D28008B170B178B150B108B160B1183160313D0
:100D38000C17831203130C130800831603178C1364
:0C0D48000C14831203170C08FD000800B7
:08400000FF3FFF3FFF3FFF3FC0
:04400E00D420FF3F7C
:00000001FF
